S009000045444F53323663
S105000400688E
S10900207E015C7E06A0D7
S10C00307EEAB07EF0187EEB02BA
S123015C8E006BBD03CBF602F7CE02F8BD03C1BD03CB0FBDE8068E006BBD0335BD036ECE94
S123017C01BB8C0286260BF60286CE0287BD03C120E0A60091C0261EA60191C12618A602EE
S123019C91C22612A60391C3260CA60491C42606EE05AD0020BC0808080808080820C34182
S12301BC534D2020093F45444954200B554C4F41442006E54558425547F564504449522003
S12301DC0871504C4953540716494E495420083444555020200DE752454E414D07AB505566
S12301FC5247450FAD4D455247450F344344554D500D225444554D500D2243544150450CB8
S123021C4B50544150450C4B54544150450C4B4154545220074843524541540801435847C9
S123023C454E0C54505847454E0C54545847454E0C54484F4D45200854494E495458083A70
S123025C4344495220086C434C4953540711524C4F414407035241534D2009B6464F525468
S123027C2009A042415349430BA60C464F524D4154204552524F520C4E4F205355434820E7
S123029C46494C45094455504C204E414D45074E4F20524F4F4D1B4E414D4520202041546D
S12302BC5452205452414B2053435452202053495A450E4449534B204E4F542052454144C9
S12302DC590B4D45444941204552524F520D204E4F4E204558495354454E54134D363830E6
S12302FC302045444F532056455220322E360E4E4F20534F555243452046494C450C44452F
S123031C56494345204552524F520E4F46494C4520434F4E464C494354BD03CB8621BDF01E
S123033C18CE006CDFBCBD03CF817F27154D271FA700088C00BC26037E0183810D26E7DFB6
S123035CBE398C006C27D209A600BDF01820D77E016ECE00C08620C605A700085A26FA7F96
S123037C00C5CE00C0BD03A6813A2614BD03A680301684FC2607D7C5BD03A620FB7E0183B7
S123039C8C00C527E0A7000820DBFF03BFDEBCA600810D270B08DFBC812C2704FE03BF3906
S10603BC3131399F
S12303C1A600BDF018085A26F739860D2009BD03E9847F817F271036BDF01832810D26076E
S12303E136860ABDF0183239B6FCF44724FAB6FCF50C3997C944444444BD040496C9840FE4
S12304017E0404810A2B028B078B307E0030DFCA37BDEA03BD047632BDEA2B8605B7015541
S12304218602BDEA3EB6EC0084802618B6EC0084082717BDEA387A015526E5F602DDCE029B
S1230441DE7E0189BDEA38868039DECA8680B70155863CB7EC038640B7EC02B6EC00A700BC
S1230461862CB7EC038640B7EC027FEC02087A015526DE4F39B6EC008420260139F602CE77
S1230481CE02CF7E0189DFCA37BDEA03BD047632BDEA2B8605B70155DECAC680A600B7EC1C
S12304A1068630B7EC02085A26F28604BDEA3E8606BDEA3EB6EC008408270FBDEA387A01BE
S12304C15526E7860EBDEA3E8601390C96C54646468A04B70150B60150843F811B2742CE10
S12304E100D0B601505FBD040F4D27057C015020E5CE00D0DFCEDECEA60581FF2723818039
S12305012720A60091C0261AA60191C12614A60291C2260EA60391C32608A60491C42602A4
S12305214F39860B5F9BCFD9CE97CFD7CEDECE8C014926C27C0150209DBD04CC4D270139F3
S1230541DECEE606D706E608D704E609D7057F0008D6C50C565656EA075AD7070C5959591D
S1230561D7034F39BD04CC4D270139DECEE606D70BE608A6098001C200D709970A7F000D72
S1230581D6C5D7020C565656EA07D70C4F39BD04CC4D260386023981FF2703860139DECE9E
S12305A1861AB701554F5FAB06C9007A015526F7AB07C900B70156F70155CE07D0DFCAD67A
S12305C1CA96CBB00156F20155D7CA97CB90C8D2C72A05DECA860339DECE96C0A70096C10F
S12305E1A70196C2A70296C3A70396C4A70496C6A705D6C796C88B01C900E708A709E60662
S1230601A607F70153B70154DEC78C0000260708DFC7DECE20D88C0000270B4C811B260352
S12306215C86010926F0F70151B70152DECE8C013E26265FB60150CE00D0BD04874D270FCE
S12306417C0150F60150C43FC11B26E77E043CCE00D0DFCE7C0150200B5F860B9BCFD9CE93
S123066197CFD7CEDECEC605862AA700085A26FA86FFA70008B60151A70008B60152A7007F
S12306815FB60150843F811B26037E043CB60150CE00D0BD04874D2601397C015020E10F32
S12306A18E006B7D000126037E016E7D000D27064FBDE80C20F5CE0000DFC0DFC2DFC39696
S12306C10297C54F97C6BD04CC81FF26BDDECEA609E6088001C200900AD20997C8D7C7BD60
S12306E105EF20C4CEE815FF0701BD036EBD053A4D2709F60293CE02947E01898EFF8A7E18
S1230701E815CEE824FF0701CE006CDFBC7E06EBCEF0182003CEEAB0DF317F0F33BD036E52
S1230721BD053A4D27037E06F4BDE809250C847F270B7F0F33BD003020EF7E016E7D0F334C
S123074126E77C0F3320EEBD036EBD04CC4D27037E06F4BD036ECE00C0BD076DDECE96CB17
S123076181FF2705A7057E07F07E01837F00CA7F00CBA600BD07802403DECC390820F38083
S12307813025268BE925228B062A048B07251A8B0A0C251597C9D6CA96CB4859485948596F
S12307A148599BC9D7CA97CB0C39BD036E96C597C9BD036E96C997C5BD04CC4D2760CE00E6
S12307C16CDFBCBD036EBD036EBD04CC4D27037E06F4BD036EDECE96C0812027F2A700960E
S12307E1C1A70196C2A70296C3A70396C4A7045FB60150CE00D0BD04874D2601397E043CCB
S12308017F00C6BD036EDEBCBD076DDECA2721DFC7BD058F4D26037E016E81022609F602A1
S1230821A0CE02A17E0189F602AACE02AB7E01897E018396C5273120037F00C596C50C46AC
S123084146468A03B701508601B70151B70152BD06503996C50C4646464CB7EC068620B701
S1230861EC02860CBDEA3E397E0183CEF0182003CEEAB0DF3196C50C4646468A04B7015093
S1230881BD0935F602B2CE02B3A600BD0030085A26F7BD0935BD0935B60150843F811B2697
S12308A106BD09357E016EB601505FCE00D0BD040F4D27057C015020DFCE00D0DFCEDECE35
S12308C1A60581FF27DBA600BD0030A601BD0030A602BD0030A603BD0030A604BD0030BD40
S12308E10926A605BD03F4BD0926A606BD03F4BD0926A607BD03F4BD0926E608A6098001C2
S1230901C2003617BD03F432BD03F4BD0935860B5F9BCFD9CE97CFD7CEDECE8C0149269EDC
S12309217C015020928620BD00308620BD003086207E0030860DBD0030860A7E0030BD033B
S12309416ECE00C0BD076D96CB3680052A4E323680022B4832484C9700BD0C40BD0BD6BDB3
S12309610C468641B709878653B7098B864DB7098F8642B709939600810726037F00017F6B
S123098100C5CE00C08641A7008653A701864DA7028642A7038620A7047E0B957E0183862B
S12309A146B70987864FB7098B8652B7098F8654B7099320148652B709878653B7098B8634
S12309C14DB7098F8642B70993CE1200FF01594FB7015B9701864FB70A79B70AC3BD036E67
S12309E196C081202605BD0AD52003BD0A61BD036E96C081202605BD0AD52003BD0A61BDF5
S1230A01036E96C0812027468649BD0A5B4D2F037C015BBD036E96C081202713BD0A614DE0
S1230A212F037C015BCE127DBC0159270220E486FFFE0159A700CE12008603C600BD04870C
S1230A414D26147D015B26037E09807E0183F6030ACE030B7E01897E043CB70AC3B70A799C
S1230A6196C08123265BCE0B4396C1E60011261396C2E60111260C8600E60211271686206F
S1230A811127110808088C0B5526DEF60319CE031A7E0189FE015996C1A70096C2A701960F
S1230AA1C3C639112A0FC630112B0AA7024FA7034AA70420034F20F30808080808FF01594C
S1230AC139864F81492719814F2753F60326CE03277E01894FFE0159A700A701A70220CD04
S1230AE1BD053A4D2721C605CE00C0BD03C1863ABDF01896C58B30BDF018F602E9CE02EA8B
S1230B01BD03C1BD03CB39FE01599606A7009607A7019604A7029605A7034F7E0AB2BD0BD2
S1230B21F2BD0C14FE0159960BA700960CA7019609A702960AA70386FF97017C0AC34F7E32
S1230B410AB248504F48524943524943504F434E204C504FCE0B818645A7018644A70586E5
S1230B6149A7098654A70D8620A711BD036E96C08120274ABD0BDFBD0C407F00C5CE00C073
S1230B818645A7008644A7018649A7028654A7038620A704BD053A4D27037E06F4B6015627
S1230BA197037EE824CE0B818642A7018641A7058653A7098649A70D8643A71120ADCE00A7
S1230BC101DF04860197067F00087F00077F0003BD0C4020A5BD036E96C081202707BD0596
S1230BE13A4D2601397E06F4BD036E96C0812027F4CE07B7DF09DFC786FF97C6BD058F4DB7
S1230C01260139810327037E081BDF09DFC726E87E0828B60153970B96C597020C46464658
S1230C21BA0154970C7F000D399606970EDE04DF0F9603B701563986FF970139BD0BD6BD96
S1230C410BE9BD0C14BD0C2A20EDBD0C40BD0C967E06A08601970B970C7F00027F000DCE8B
S1230C610082DF09BD0C968653BDE80C861BBDE80C8614BDE80C7D000D27064FBDE80C20A8
S1230C81F58603B701508601B70152960B4CB70151BD065039966C815027797DFF022A0CCF
S1230CA18610BDF9CF8637BDF9CF200DB6FCFD8455B7FCF48611BDF9CFCE1200DFCACEFF04
S1230CC1FFB6FCF44725090926F7861ADECA2010DECAB6FCF5847F810D2705A7000820DCA0
S1230CE1A7000886FFA700B6FCFD8435B7FCF48613BDF9CFB6FCF5B6FCF5CE1200DFCADE32
S1230D01CAA60008DFCA81FF2791811A2705BDE80C20EC39BDEB04BD003625F7BDE80C202C
S1230D21F6BD036EBD053A4D27037E06F4966C8143272DBD0DD9BD0DD9BDE8092509810DD5
S1230D412715BD003320F2861ABD0033860DBD0033BD0DD97E016EBD00334FBD003320D985
S1230D617F01588D0E7D015826048D2C20F58D287E016ECE1200DFCABDE809250CDECAA7D4
S1230D810008DFCA810D26F039861ADECAA70008860DA7007C0158390D79FF628610BDF94E
S1230DA1CF8630BDF9CF86FFBDF9CF8612BDF9CFCE1200A600BDF018A60008810D26F486D6
S1230DC114BDF9CF8610BDF9CF8639BDF9CF7FFF62CE5DC00926FD39C664D7C94FBD0033DD
S1230DE17A00C926F739860197077F00068641970C7F000B9607BDEA22BD04769606BDEAD7
S1230E012BCE1200DFCA9607BDEA22DECABD0E99DFCA86039B079707C602811C27125C81BA
S1230E211D270D811B26DF7C0006860197072004D70720D2860597C9CE1200DFCA960CBD4D
S1230E41EA22BD0476960BBDEA2B960CBDEA22DECABD0EEBDFCA86039B0C970CC642815CAD
S1230E61270F5C815D270A815B26DF8641970C2004D70C20D5BD0F08270F8641970CBDEA6A
S1230E81387A00C926B27E043C7C000B960B814D26037E016E7E0DF58605B701558602BDD3
S1230EA1EA3EB6EC0084082708BDEA387A015526EC8604A700B6EC0084802704860EA700AA
S1230EC1088680B70155C640863CB7EC03F7EC02B6EC00A70008862CB7EC03F7EC027FECA6
S1230EE1027A015526E2BDEA3839A60036088680B70155C630A600B7EC06F7EC02087A0157
S1230F015526F2327EEA3E960CBDEA228606BDEA3EB6EC008408261986029B0C970C815B90
S1150F212BE5815C27068642970C20DB8641970C4F3948
S1230F34BD0C40BD036E96C08120270EBD053A4D27037E06F4BD0F5120E97E06A07F015829
S1230F54CE1200DFCABDE8092523DECAA700088C1EFE26EFDFCACE1200DFCCA600BDE80C5B
S1150F74DECC089CCA26F27D015827D4397C015820E454
S1230F8D0A205045524D414E454E5407205055524745440C5041434B494E47204449534B2A
S1230FAD96C5B70F86BD036E96C0812026037E105EB60F8697C5BD053A4D26E9A605810113
S1230FCD2616CE00C0C605BD03C1CE0F8EF60F8DBD03C1BD03CB20CD8680A705B601505FDC
S1230FEDCE00D0BD04874D27037E043CCE00C0C605BD03C1CE0F99F60F98BD03C1BD03CBCC
S123100D20A30CB60F864646468A04B70F8CCE00D0FF0F8AB60F8C843F811B260386FF3926
S123102DCE00D0B60F8C5FBD040F4D27057C0F8C20DCFE0F8AA60539860B5FBB0F8BF90F2D
S123104D8AB70F8BF70F8AFE0F8A8C014926C520DCCE0FA1F60FA0BD03C1BD03CBBD100FB5
S123106D81FF26013981802705BD104520F2FE0F8AA606970BB60F8697020C464646AA07D6
S123108D970C7F000DCE07B7DF09DFC7FE0F8AFF0F87B60F8CB70F89BD104581FF273681BA
S12310AD8027F5FE0F8AA6069706A6089704A60997057F0008B60F860C464646AA074A97CD
S12310CD070C4949499703BD0F517D000D27094FBDE80C20F57E119AFE0F8AA60536A60440
S12310ED36A60336A60236A60136A60036D6C796C8900AD2098B01C9003736CE00D0B60F9E
S123110D895FBD040FFE0F8732A70932A70832A70032A70132A70232A70332A70432A7058A
S123112DCE00D0B60F895FBD04874D27037E043CB60F8A36B60F8B36B60F8C36FE0F87FFB1
S123114D0F8AB60F89B70F8CBD1045FE0F8A960BA706960C843FA707CE00D0B60F8C5FBD30
S123116D04874D27037E043CCE07B7DF09DFC77F000DFE0F8AFF0F87B60F8CB70F8932B743
S123118D0F8C32B70F8B32B70F8A7E10A5CE00D0B60F895FBD040FFE0F87862AA700A701BD
S12311ADA702A703A70486FFA705960BA706960C843FA707CE00D0B60F895FBD04874D2688
S10511CDA4393F
S9030000FC
