S006000041534D18
S10900208EA0427E047B69
S123010041424111271B4144430EBD094144440EBD0B414E440EBD0441534C0FB6084153A6
S1230120520FB60742434310D62442435310D62542455110D62742474510D62C4247541036
S1230140D62E42484910D6224249540EBD05424C4510D62F424C5310D623424C5410D62D46
S1230160424D4910D62B424E4510D62642504C10D62A42524110D62042535210D68D4256F6
S12301805310D62842565310D629434241112711434C4311270C434C4911270E434C520FCD
S12301A0B60F434C5611270A434D500EBD01434F4D0FB60343505810258C44414111271939
S12301C04445430FB60A444553112734444558112709454E44128AFF454F520EBD08455155
S12301E055142DFF46434214BFFF46434314F7FF4644421551FF4946201595FF494E430F81
S1230200B60C494E53112731494E581127084A4D5010A36E4A535210A3AD4C44410EBD069D
S12302204C445310258E4C44581025CE4C53520FB6044D414315D5FF4E414D16DCFF4E4555
S1230240470FB6004E494616F5FF4E4F501127024F52410EBD0A4F5247148BFF5041471754
S12302603AFF50534810053650554C100532524D42175BFF524F4C0FB609524F520FB60608
S123028052544911273B5254531127395342411127105342430EBD0253454311270D534513
S12302A04911270953455611270B5354410F4E0753545310978F5354581097CF5355420E96
S12302C0BD0053574911273F54414211271654415011270654424111271754504111270761
S12302E05453540FB60D54535811273054585311273557414911273E0000000404040004F3
S1230300000024240424802442424242424242424242000000000000808383828282828023
S12303208080808080808080808080808080808081808000000000007E19677E19337E19D9
S1100340367E192A7E192D7E19297E19306A
S12304630A0D4D433638303020415353454D424C45520A0D047E19597F0360BD0347CE047C
S123048363BD18EA7F0359FE0339EE00FF034DFF08A0CE0800FF08A2CE08A0BD0CA9FE08CD
S12304A3A0FF034FCE0100FF08A2CE08A0BD0CA9FE08A0FF035108FF0353FF08A2CE7FFF99
S12304C3FF08A0CE08A0BD0CBAB608A0F608A1CE0009FF08A2CE08A2BD0C5EB70355F70350
S12304E356CE0009FF08A0CE08A0BD0C3AB708A0F708A1FE0353FF08A2CE08A0BD0CA9FEC6
S123050308A0FF03578620FE0353A70008BC035726F8CE0000FF035CFF0373CE0000FF0385
S1230523FEBD11497F0372FE034DFF03F87F03F7FE0351FF037586FFB70462CE0460FF044A
S123054360CE0000FF035EFF035ABD06257F0361FE035A08FF035AFE036BA600812A260835
S1230563BD1149BD0CCB20E27D0462262281202703BD07B3BD07B3B60368810322E2BD0974
S1230583FD8C159527078C16F5270220D36E008120271DBD07B3C101270BCE0205BD0E786A
S12305A3BD0CCB20A57C03617D03602603BD08B5BD07B3C101270BCE0202BD0E78BD0CCB64
S12305C32088BD09FD8100272DBD0914C1FF2728C52027247D03F72708BD06F47D03F727C0
S12305E320FF03F8BD0CCB7C03F7BD07B3C10D2613F703C5200B6E00CE0207BD0E78BD0C17
S1230603CB7E054DCE03C5FF03FAFE0366A60008FF0366FE03FAA70008FF03FA810D26EAE5
S123062320DF7D03F72709BD06627D03F7270139CE0400FF0369FF036BBD034124068EA00D
S1230643427E1290810A27F1810027ED8C044F2705A700082004C60DE700810D26DB39FE9B
S123066303F8A6008117260B7A03F72705BD075820ED39CE037DFF036BFF0369FF03FCFEE5
S123068303F8A60008FF03F881262713FE03FCA70008FF03FC8C03C4274B810D26E139E6AC
S12306A300802F08FF03F8CE03C5FF03FAA60008812C2704810D26F55A26EFFE03FAA600B1
S12306C308FF03FAFE03FCA70008FF03FC8C03C42713FE03FAA60008FF03FA812C27A0813E
S12306E30D26E1209A860DA700CE0203BD0E78208EFF0379BF0377BE0375CE03FDC606A6FD
S12307030009FF037B3009BC034F2733FE037B365A26ECCE03C5A600810D27030820F7A6D4
S123072300FF037B3009BC034F2714FE037B36098C03C426EABF0375BE0377FE037939BEB5
S12307430351BF0375BE0377CE0251BD0E78FE03797F03F739FF0379BF0377BE0375CE0384
S1230763C532A70008810D26F8CE03F8C60632A700085A26F9BF0375BE0377FE03793936D9
S123078337E604FF07B1FE07B1EE00A600FE07B16C0126026C00FE07B1EE02A100260CFE02
S11107A307B16C0326026C025A26DB3332398E
S12307B37F03687C0368FE0369FF0366A60008FF0369812027F02206810D26471639815F5C
S12307D32302203FBD088085012713FE0369E600C1202704C10D260AFE0366E60039858094
S12307F32704BD08303985402704BD081939852026E68504270DFE0366E600C12426D9BD26
S12308130855394F5F39FE0369A6007C036808FF0369BD0880854026EDC6092043FE036921
S1230833A6007C036808FF0369BD0880858026ED854026E9C607F103682403F70368C601F7
S1230853201E7F0368FE0369FF0366FE0369A6007C036808FF0369BD0880850226EDC60375
S12308737A0368FE036909FF036986023981202516815F22127F089CB7089DCE089CBD0C33
S10C0893A9FE089CA600394F39A6
S105089E02D87A
S12308B5BD0976FF036DA6008120262FFF08B3CE08A7FF08B1C606FE08B1A60008FF08B100
S12308D5FE08B3A70008FF08B35A26EBB6035EA700B6035FA7018640A70239BD093B261015
S12308F5FE036D8680AA08A708CE0206BD0E7839BD0950BC08AD270220ACCE022120EDBD81
S12309150976FF036DA60081202603C6FF39BD093B2608FE036DE608EE0639BD0950BC08D0
S1230935AD26E2C6FF39FF08A08606B708A4CE08A7FF08A2CE08A0BD078239FE036D0808BC
S123095508080808080808BC03572603FE0353FF036D39FE036D8620C609A700085A26FAFF
S123097539CE2020FF08A7FF08A9FF08ABCE08A7FF08B3FE0366FF08B1F60368FE08B1A6F3
S12309950008FF08B1FE08B3A70008FF08B35A26EBFE08A7FF08ADFE08A9FF08AFCE08ADA8
S12309B5BD0CA9FE08ABFF08AFCE08ADBD0CA9B608ADF608AEFE0355FF08AFCE08AFBD0CDF
S12309D55EFF08AD4FC609CE08ADBD0C3AB708ADF708AEFE0353FF08AFCE08ADBD0CA9FE32
S10609F508AD390D
S12309FB0006B60368B708A48657B709F94FB709F8B609F84CB109F9260386FF39F609F81D
S1230A1BFB09F956F709FA4FCE09FB5ABD0C3AB708A0F708A1CE0100FF08A2CE08A0BD0C36
S1230A3BA9FE08A0FF08A5FE0366FF08A2CE08A0BD0782250B26114FFE08A5E605EE03395A
S1130A5BB609FAB709F820A9B609FAB709F920A11A
S1230A727F0A6B7F0A6C7F0A6FB70A70C12A262DFE035EFF0A6B8602B70A6F730362FE03AC
S1230A9269A60081202708810D2704812C2608FE0A6BFF0D255F39BD07B3B70A70B10A6FBF
S1230AB22606CE02045F5339810227148124270220F07D0A6F27EBF70A71B70A6F7E0A90D7
S1230AD2C1032611F60368C1042F05CE021020D5BD0B8B203BC1092611F60368C1052F05CC
S1230AF2CE021020C0BD0BE72026C10127037E0AB4BD0914C5802612C54027057303622083
S1230B120FC51027037303632006CE02117E0AB7FF0A6D7D0A6F260FFE0A6DFF0A6BB60A48
S1230B3270B70A6F7E0A90B60A71812B2608CE0A6BBD0CA920E8812D2608CE0A6BBD0CBA7D
S1230B5220DC812A2615B60A6BF60A6CCE0A6DBD0C3AB70A6BF70A6C7E0B30812F27037E14
S11A0B720AB4B60A6BF60A6CCE0A6DBD0C5EB70A6BF70A6C7E0B3055
S1230B8BFE03667F0B897F0B8AF6036809085A26FCF60368BD0BD5B70B8A5A272909BD0B05
S1230BABD548484848BA0B8AB70B8A5A271809BD0BD5B70B895A270E09BD0BD548484848B7
S1180BCBBA0B89B70B89FE0B8939A600803081092F02800739DC
S1230BE77F0BE07F0BE17F0BE37F0BE47C0BE4FE036609F60368F70BE2085A26FCFF0BE5A7
S1230C07E600C40F4FCE0BE3BD0C3AFB0BE1B90BE0B70BE0F70BE14FC60ACE0BE3BD0C3A14
S1230C27B70BE3F70BE4FE0BE5097A0BE226CEFE0BE0393736A60136A6003686103630A6E2
S1230C47035849680269012404EB04A9036A0026F03131313131393736A600E60137363405
S1230C673086016D012B0B4C680269012B04811126F5A700A603E6046F036F04E002A2016E
S1230C872407EB02A9010C20010D69046903640166026A0026E6A700E701EE0031313132EF
S1230CA733393637A601E600AB03E902A701E7003332393637A601E600A003E202A701E7ED
S1230CC700333239B60359858026147D0360270F7D03F7270485102606BD0CE7BD0D2E39C0
S1230CE737F60372C1002603BD0D017C0372F60372C13C26037F03723339CE0D08BD18EA0E
S11E0D07390D0C0D0A0D0A2E2E2E2E2E2E2E2E2E2E2E2E2E0D0A0D0A0D0A04AE
S1230D2C2004CE0D27B6035AF6035BBD0E19CE0D28BD18EA7D03F72708862BBD1911CE0E56
S1230D4C16BD18EA7D0D22260D7D0D232608CE0E13BD18EA202BCE035EBD18FAF60D2327B0
S1230D6C20C101270ECE0D25BD18FACE0E15BD18EA2045CE0D26BD18FCCE0E13BD18EA20C8
S1230D8C37F60D222608CE0E10BD18EA202ACE0D24BD18FCC1012608CE0E13BD18EA20181E
S1230DACC102260ECE0D26BD18FCCE0E16BD18EA2006CE0D25BD18FA7D03632704864320BD
S1230DCC1D7D03642704865820147D03652704864E200B7D03622704865220028620BD1933
S1230DEC118620BD1911FE036BA60036BD19110832810D26F4860ABD19117F0D237F0D2260
S1230E0C7F036239202020202020202004FF0E5ACE0E4F7F0E59E001A20025057C0E592079
S1230E2CF5EB01A90036FF0E5CFE0E5AB60E598B30A7003208FF0E5AFE0E5C08088C0E5988
S1100E4C26D139271003E80064000A0001D4
S10F0E602A2A2A2A204552524F522320ED
S1040E6F205E
S1230E75203A043637FF0E5EB60E5E8B30B70E6CB60E5F444444448B30B70E6DB60E5F844E
S1230E950F8B30B70E6ECE0E70B6035AF6035BBD0E19CE0E60BD18EABD0DF23332FE037315
S1230EB508FF0373FE0E5E39BD1149BD07B3C10D2608CE0204BD0E78205BBD1177F611444D
S1230ED527F0BD07B3C1232614731145BD07B3C127260AFE0369A600B70D26200BBD0A7297
S1230EF5BD1197F61145270CC680F71147C6C0F71148203CBD07B3BD1184262A7D0363260C
S1230F150A7D03622605F60D25270FC6B0F71147C6F0F71148BD12242019C690F71147C6E1
S1230F35D0F71148200AC6A0F71147C6E0F71148BD11D6BD12787E054DBD1149BD07B3C199
S1230F550D2608CE0204BD0E782032BD1177F6114427F0BD07B3BD0A72BD1197BD07B3BDE4
S1230F751184262A7D0363260A7D03622605F60D25270FC6B0F71147C6F0F71148BD122437
S1230F952019C690F71147C6D0F71148200AC6A0F71147C6E0F71148BD11D6BD12787E0531
S1230FB54DBD1149BD07B3C10D2608CE0204BD0E78202ABD11777D1144270FC640F711473E
S1230FD5C650F71148BD11AA2020BD0A72BD1197BD07B3BD1184260AC670F71147BD1242AD
S1230FF52008C660F71147BD11F4BD12787E054DBD1149BD07B3BD11777D11442606CE02C1
S123101504BD0E787C1148BD11AABD12787E054DBD1149BD07B3C10D2608CE0240BD0E782F
S12310352046C1232619731145BD07B3C127260FFE0369A600B70D25A601B70D262029BD21
S12310550A72BD1197F611452702201CBD07B3BD118426207D0363260A7D03622605F60DB3
S123107525270AC630F71147BD1242200FC610F711472005C620F71147BD11F4BD12787E76
S1231095054DBD1149BD07B3C10D26B3208CBD1149BD07B3C10D2608CE0204BD0E78200E35
S12310B5BD0A72BD1197BD07B3BD1184260AC610F71147BD12422003BD11F4BD12787E059B
S12310D54DBD1149BD07B3C10D2608CE0204BD0E7820367D03602731BD0A72BD1197FE03DC
S12310F55E0808FF0370B60D26F60D25B00371F20370C1FF26034D2B0DC10026034D2A0688
S1231115CE0208BD0E78B70D26BD11F4BD12787E054DBD11497D03602706BD1862BD189A0E
S11211357C0D227C036FBD0CCBBD12787E054D63
S12311497F036F7F03627F03637F03647F03657F0D23F70D247F0D227F11447F11457F113D
S1231169467F0D257F0D267F11477F114839C1412705C142270139F7114439C12C260BBDDF
S123118907B3C1582604731146397F114639C1FF260E7D03602703BD0E787F0D25730D259C
S12311A9397D03602723F60D24B61144270F81422705FA11472003FA1148F70D24BD186241
S12311C9BD189A7C0D22BD0CCB7C036F397D03602742F60D24B61144272581422705FA116C
S12311E9472003FA1148F70D2420147D036027247F03627F0363F60D24FA1147F70D24BD77
S12312091862BD189AF60D26BD189A7C0D227C0D22BD0CCB7C036F7C036F397D03602745F5
S1231229F60D24B61144271F81422705FA11472003FA1148F70D24200E7D03602727F60DEB
S123124924FA1147F70D24BD1862BD189AF60D25BD189AF60D26BD189A7C0D227C0D227C3C
S12312690D22BD0CCB7C036F7C036F7C036F39B6035FF6035EBB036FC900B7035FF7035EC5
S123128939BD1149BD17B17D0360260FFE035EFF035C730360BD034A7E0524FE035CBC03F7
S12312A95E2706CE0220BD0E78B6035985802606BD0CCBBD13FAB60359852027037E1389C7
S12312C9CE1404FF140D7F1411FE03532009080808080808080808BC0357260B7D14112782
S12312E9037E13277E1389E600C12027E1E608C1FF27DBFF140FFF08A2FE140DFF08A0C636
S123130906F708A4CE08A0BD07822205FE140F20BDFE140FFF140DC6FFF7141120B0BD0C7B
S1231329E7C606FE140DA600BD1911085A26F78620BD1911BD18FAFF1412E600C54027052A
S12313498652BD1911C5202705864DBD1911C51027058643BD1911C50827058658BD191187
S1231369C5042705864EBD1911E6002A06CE13C6BD18EAFE1412C6FFE700BD13FA7E12C941
S1231389BD13FABD13FACE13DDB60373F60374BD0E19CE13D1BD18EABD13FABD13FACE138B
S12313A9EABD18EACE03FEBD18FABD13FAB6035985402606BD18827E033B7E033E20524583
S11713C9444546494E454404544845524520574552453A20F4
S12313E2204552524F525304434F4D4D4F4E204C454E4754483D2004CE1401BD18EA390DF2
S10E14020A045B5B5B5B5B5B000000AB
S11A1414FE036D8606E60036FF142BBD189A32FE142B084A26EF39EB
S123142DBD1149FE036DFF14897D03612608CE0213BD0E782040BD07B3C10D2605CE02168F
S123144D20EFBD0A72C1FF27E87D0360261FFE1489A6087D0362260984BF7D036327028A0C
S11F146D10A708B60D26A707B60D25A706730D237C0D227C0D22BD0CCB7E054D17
S123148BBD1149BD07B3C10D2608CE0216BD0E78201CBD0A72C1FF27F4B60D26B7035FB682
S12314AB0D25B7035E730D237C0D227C0D22BD0CCB7E054DBD1149BD07B3C10D2608CE021C
S12314CB16BD0E78201DBD1862BD0A72BD11977C036F7D0360270FF60D26BD189A7C0D224B
S12314EB7C0D23BD0CCBBD12787E054DBD1149BD07B3C1272708CE0204BD0E78203FBD1896
S123150B62FE0369E600C10D27ECF70D267D03602703BD189AFE036908FF03697C036FE6D5
S123152B00C1272706C10D26E4200CE601C127260608FF036920D67C0D237C0D22BD0CCB34
S123154BBD12787E054DBD1149BD07B3C10D2608CE0216BD0E782029BD1862BD0A72BD112B
S123156B977C036F7C036F7D03602718F60D25BD189AF60D26BD189A7C0D227C0D22730DC5
S123158B23BD0CCBBD12787E054DBD1149BD17B1BD07B3C10D2608CE0216BD0E782023BD36
S12315AB0A72C1FF27F1BD17047D046227147D0D25260A7D0D2626057F0462200586FFB7D2
S10B15CB0462BD0CCB7E054D4A
S12315D5BD1149BD0CCB7F15D37F15D47D036026307D0361260B7315D4CE0226BD0E78207B
S12315F5DFFE036D8620A708B603F8A706B603F9A707BD07B3FE0366A60081432603731579
S1231615D3BD0633FE035A08FF035ABD0CCBFE036BA600812A260A7D15D327E5BD168A20BA
S1231635E07F0361FE036BA60081202706BD07B3730361BD07B38604B708A4FE0366FF08CE
S1231655A0CE16D8FF08A2CE08A0BD0782260D7D0361270ECE0227BD0E782006BD168A7E2C
S123167516167D0360260B8617FE03F8A70008FF03F87E054D7D036026367D15D42631FE0E
S1231695036BFF0369FE0369A60008FF0369FE03F8BC034F2610860DA70008FF03F8CE028C
S12316B528BD0E78200AA70008FF03F8810D26D539730D237303657C0D227C0D22BD0CCBA9
S12316D57E054D4D454E44BD1149BD17B1BD07B3C1012709CE0216BD0E787E16C67E16C61B
S12316F5BD1149BD17B1BD1718BD0CCB7E054DBF0377FE04608C0458271DBE0460B60462E0
S123171536201BBF0377FE04608C04602709BE046032B704622007CE0254BD0E7839BF0489
S123173560BE037739BD1149BD17B17D03602713F60372270E863CF00372BD13FA5A26FAFE
S12317557F03727E054DBD1149BD07B3C10D2608CE0216BD0E782015BD0A72C1FF27F47D33
S12317750360270C7C0D227C0D22730D23BD0CCBB6035FF6035EBB0D26F90D25B7035FF795
S1231795035E7E054D5FFE0D25FF0370BD189AFE0370092706FF03705F20F1397D036127C5
S11317B50E7D03602603BD0968CE0223BD0E78396C
S12317E717C7000000000000B6035985402659FE17E78C17C727518653BD03448631BD0378
S123180744F617E9CB03BD18CBFB17EAF717EAF617EDBD18CBFB17EAF717EAF617EEBD18C3
S1231827CBFB17EAF717EACE17C7BC17E72708E60008BD18CB20F3F617EA53BD18CB860A2E
S1231847BD0344860DBD0344CE17C7FF17E7FE17EBFF17ED7F17E97F17EA393637FE035E32
S1231867BC17EB2706FF17EBBD17EF333239533930333030303046430A0D00B603598540EA
S12318872610BD17EFCE1875A6002706BD03440820F639B6035985402629FF17C5FE17E7BE
S12318A78C17E7260837BD17EF33FE17E7E70008FF17E7FE17EB08FF17EB7C17E9FB17EACF
S12318C7F717EA39178D09BD0344178D077E034444444444840F8B30813923028B0739BDE6
S12318E7191108A600810426F639A6008D0EA60008200D8DF58DF386207E191144444444AF
S1231907840F8B30813923028B0736BD047832810A260E3637C6088600BD04785A26F833F8
S11519273239397E193B7E19477E19557EE80F7EE8008F
S123193BFF193937BDE80933FE193939FF19393637BDE80C3332FE193939BDE82D39FF1916
S111195B393637BDF0183332FE19393919699F
S9030000FC
