S006000041534D18
S10600207E05D97D
S123025E414241128B1B41444310210941444410210B414E4410210441534C111A0841534A
S123027E52111A07424343123A24424353123A25424551123A27424745123A2C42475412D7
S123029E3A2E424849123A22424954102105424C45123A2F424C53123A23424C54123A2D85
S12302BE424D49123A2B424E45123A2642504C123A2A425241123A20425352123A8D425699
S12302DE53123A28425653123A29434241128B11434C43128B0C434C49128B0E434C521171
S12302FE1A0F434C56128B0A434D50102101434F4D111A0343505811898C444141128B197B
S123031E444543111A0A444553128B34444558128B09454E4413EEFF454F521021084551FA
S123033E551591FF4643421623FF464343165BFF46444216B5FF49462016F9FF494E431124
S123035E1A0C494E53128B31494E58128B084A4D5012076E4A53521207AD4C4441102106DE
S123037E4C445311898E4C44581189CE4C5352111A044D41431739FF4E414D1840FF4E45FA
S123039E47111A004E49461859FF4E4F50128B024F524110210A4F524715EFFF50414718F8
S12303BE9EFF50534811693650554C116932524D4218BFFF524F4C111A09524F52111A064A
S12303DE525449128B3B525453128B39534241128B10534243102102534543128B0D5345BA
S12303FE49128B09534556128B0B53544110B20753545311FB8F53545811FBCF535542103C
S123041E2100535749128B3F544142128B16544150128B06544241128B17545041128B07A4
S123043E545354111A0D545358128B30545853128B35574149128B3E0000000404040004FE
S123045E0000242404248024424242424242424242420000000000008083838282828280C4
S123047E8080808080808080808080808080808081808000000000007E1AD17E1A977E1AA9
S110049E9D7E1A8E7E1A917E1A8D7E1A9410
S12305C10A0D4D433638303020415353454D424C45520A0D047E1AC3BF015C8E025D7F04E1
S12305E1BEBD04A5CE05C1BD1A4E7F04B7FE0497EE00FF04ABFF0A04CE0800FF0A06CE0AE0
S123060104BD0E0DFE0A04FF04ADCE0100FF0A06CE0A04BD0E0DFE0A04FF04AF08FF04B131
S1230621FF0A06CE7FFFFF0A04CE0A04BD0E1EB60A04F60A05CE0009FF0A06CE0A06BD0D31
S1230641C2B704B3F704B4CE0009FF0A04CE0A04BD0D9EB70A04F70A05FE04B1FF0A06CE33
S12306610A04BD0E0DFE0A04FF04B58620FE04B1A70008BC04B526F8CE0000FF04BAFF04A2
S1230681D1CE0000FF055CBD12AD7F04D0FE04ABFF05567F0555FE04AFFF04D386FFB705DF
S12306A1C0CE05BEFF05BECE0000FF04BCFF04B8BD07897F04BFFE04B808FF04B8FE04C903
S12306C1A600812A2608BD12ADBD0E2F20E27D05C0262281202703BD0917BD0917B604C68F
S12306E1810322E2BD0B618C16F927078C1859270220D36E008120271DBD0917C101270B3E
S1230701CE0205BD0FDCBD0E2F20A57C04BF7D04BE2603BD0A19BD0917C101270BCE02026E
S1230721BD0FDCBD0E2F2088BD0B618100272DBD0A78C1FF2728C52027247D05552708BD2B
S123074108587D05552720FF0556BD0E2F7C0555BD0917C10D2613F70523200B6E00CE0280
S123076107BD0FDCBD0E2F7E06B1CE0523FF0558FE04C4A60008FF04C4FE0558A70008FF00
S12307810558810D26EA20DF7D05552709BD07C67D0555270139CE055EFF04C7FF04C9BD0D
S12307A1049F24068E025E7E13F4810A27F1810027ED8C05AD2705A700082004C60DE700C5
S12307C1810D26DB39FE0556A6008117260B7A05552705BD08BC20ED39CE04DBFF04C9FF45
S12307E104C7FF055AFE0556A60008FF055681262713FE055AA70008FF055A8C0522274BFA
S1230801810D26E139E600802F08FF0556CE0523FF0558A60008812C2704810D26F55A260D
S1230821EFFE0558A60008FF0558FE055AA70008FF055A8C05222713FE0558A60008FF05FB
S123084158812C27A0810D26E1209A860DA700CE0203BD0FDC208EFF04D7BF04D5BE04D30E
S1230861CE055BC606A60009FF04D93009BC04AD2733FE04D9365A26ECCE0523A600810D47
S123088127030820F7A600FF04D93009BC04AD2714FE04D936098C052226EABF04D3BE0472
S12308A1D5FE04D739BE04AFBF04D3BE04D5CE0251BD0FDCFE04D77F055539FF04D7BF045D
S12308C1D5BE04D3CE052332A70008810D26F8CE0556C60632A700085A26F9BF04D3BE047F
S12308E1D5FE04D7393637E604FF0915FE0915EE00A600FE09156C0126026C00FE0915EEC1
S117090102A100260CFE09156C0326026C025A26DB333239EF
S12309177F04C67C04C6FE04C7FF04C4A60008FF04C7812027F02206810D26471639815F1B
S12309372302203FBD09E485012713FE04C7E600C1202704C10D260AFE04C4E6003985800B
S12309572704BD09943985402704BD097D39852026E68504270DFE04C4E600C12426D9BD97
S123097709B9394F5F39FE04C7A6007C04C608FF04C7BD09E4854026EDC6092043FE04C776
S1230997A6007C04C608FF04C7BD09E4858026ED854026E9C607F104C62403F704C6C601B1
S12309B7201E7F04C6FE04C7FF04C4FE04C7A6007C04C608FF04C7BD09E4850226EDC60371
S12309D77A04C6FE04C709FF04C786023981202516815F22127F0A00B70A01CE0A00BD0E7D
S10C09F70DFE0A00A600394F3977
S1050A020436B4
S1230A19BD0ADAFF04CBA6008120262FFF0A17CE0A0BFF0A15C606FE0A15A60008FF0A15D8
S1230A39FE0A17A70008FF0A175A26EBB604BCA700B604BDA7018640A70239BD0A9F2610C0
S1230A59FE04CB8680AA08A708CE0206BD0FDC39BD0AB4BC0A11270220ACCE022120EDBD8C
S1230A790ADAFF04CBA60081202603C6FF39BD0A9F2608FE04CBE608EE0639BD0AB4BC0A7C
S1230A991126E2C6FF39FF0A048606B70A08CE0A0BFF0A06CE0A04BD08E639FE04CB080831
S1230AB908080808080808BC04B52603FE04B1FF04CB39FE04CB8620C609A700085A26FA1E
S1230AD939CE2020FF0A0BFF0A0DFF0A0FCE0A0BFF0A17FE04C4FF0A15F604C6FE0A15A606
S1230AF90008FF0A15FE0A17A70008FF0A175A26EBFE0A0BFF0A11FE0A0DFF0A13CE0A1113
S1230B19BD0E0DFE0A0FFF0A13CE0A11BD0E0DB60A11F60A12FE04B3FF0A13CE0A13BD0D83
S1230B39C2FF0A114FC609CE0A11BD0D9EB70A11F70A12FE04B1FF0A13CE0A11BD0E0DFEDA
S1060B590A113941
S1230B5F0006B604C6B70A088657B70B5D4FB70B5CB60B5C4CB10B5D260386FF39F60B5CF4
S1230B7FFB0B5D56F70B5E4FCE0B5F5ABD0D9EB70A04F70A05CE025EFF0A06CE0A04BD0E41
S1230B9F0DFE0A04FF0A09FE04C4FF0A06CE0A04BD08E6250B26114FFE0A09E605EE0339CF
S1130BBFB60B5EB70B5C20A9B60B5EB70B5D20A11D
S1230BD67F0BCF7F0BD07F0BD3B70BD4C12A262DFE04BCFF0BCF8602B70BD37304C0FE042A
S1230BF6C7A60081202708810D2704812C2608FE0BCFFF0E895F39BD0917B70BD4B10BD302
S1230C162606CE02045F5339810227148124270220F07D0BD327EBF70BD5B70BD37E0BF4DD
S1230C36C1032611F604C6C1042F05CE021020D5BD0CEF203BC1092611F604C6C1052F0543
S1230C56CE021020C0BD0D4B2026C10127037E0C18BD0A78C5802612C54027057304C0208D
S1230C760FC51027037304C12006CE02117E0C1BFF0BD17D0BD3260FFE0BD1FF0BCFB60B89
S1230C96D4B70BD37E0BF4B60BD5812B2608CE0BCFBD0E0D20E8812D2608CE0BCFBD0E1EEF
S1230CB620DC812A2615B60BCFF60BD0CE0BD1BD0D9EB70BCFF70BD07E0C94812F27037EEC
S11A0CD60C18B60BCFF60BD0CE0BD1BD0DC2B70BCFF70BD07E0C94C7
S1230CEFFE04C47F0CED7F0CEEF604C609085A26FCF604C6BD0D39B70CEE5A272909BD0DEC
S1230D0F3948484848BA0CEEB70CEE5A271809BD0D39B70CED5A270E09BD0D3948484848F2
S1180D2FBA0CEDB70CEDFE0CED39A600803081092F0280073947
S1230D4B7F0D447F0D457F0D477F0D487C0D48FE04C409F604C6F70D46085A26FCFF0D49B9
S1230D6BE600C40F4FCE0D47BD0D9EFB0D45B90D44B70D44F70D454FC60ACE0D47BD0D9E81
S1230D8BB70D47F70D48FE0D49097A0D4626CEFE0D44393736A60136A6003686103630A67F
S1230DAB035849680269012404EB04A9036A0026F03131313131393736A600E601373634A0
S1230DCB3086016D012B0B4C680269012B04811126F5A700A603E6046F036F04E002A20109
S1230DEB2407EB02A9010C20010D69046903640166026A0026E6A700E701EE00313131328A
S1230E0B33393637A601E600AB03E902A701E7003332393637A601E600A003E202A701E787
S1230E2B00333239B604B7858026147D04BE270F7D0555270485102606BD0E4BBD0E923971
S1230E4B37F604D0C1002603BD0E657C04D0F604D0C13C26037F04D03339CE0E6CBD1A4EFC
S11E0E6B390D0C0D0A0D0A2E2E2E2E2E2E2E2E2E2E2E2E2E0D0A0D0A0D0A0449
S1230E902004CE0E8BB604B8F604B9BD0F7DCE0E8CBD1A4E7D05552708862BBD1A75CE0FD8
S1230EB07ABD1A4E7D0E86260D7D0E872608CE0F77BD1A4E202BCE04BCBD1A5EF60E8727C2
S1230ED020C101270ECE0E89BD1A5ECE0F79BD1A4E2045CE0E8ABD1A60CE0F77BD1A4E2037
S1230EF037F60E862608CE0F74BD1A4E202ACE0E88BD1A60C1012608CE0F77BD1A4E2018F3
S1230F10C102260ECE0E8ABD1A60CE0F7ABD1A4E2006CE0E89BD1A5E7D04C1270486432097
S1230F301D7D04C22704865820147D04C32704864E200B7D04C02704865220028620BD1AAF
S1230F50758620BD1A75FE04C9A60036BD1A750832810D26F4860ABD1A757F0E877F0E863E
S1230F707F04C039202020202020202004FF0FBECE0FB37F0FBDE001A20025057C0FBD2021
S1230F90F5EB01A90036FF0FC0FE0FBEB60FBD8B30A7003208FF0FBEFE0FC008088C0FBDC5
S1100FB026D139271003E80064000A00016F
S10F0FC42A2A2A2A204552524F52232088
S1040FD320F9
S1230FD9203A043637FF0FC2B60FC28B30B70FD0B60FC3444444448B30B70FD1B60FC3848B
S1230FF90F8B30B70FD2CE0FD4B604B8F604B9BD0F7DCE0FC4BD1A4EBD0F563332FE04D133
S123101908FF04D1FE0FC239BD12ADBD0917C10D2608CE0204BD0FDC205BBD12DBF612A829
S123103927F0BD0917C12326147312A9BD0917C127260AFE04C7A600B70E8A200BBD0BD6D7
S1231059BD12FBF612A9270CC680F712ABC6C0F712AC203CBD0917BD12E8262A7D04C126E8
S12310790A7D04C02605F60E89270FC6B0F712ABC6F0F712ACBD13882019C690F712ABC624
S1231099D0F712AC200AC6A0F712ABC6E0F712ACBD133ABD13DC7E06B1BD12ADBD0917C10A
S12310B90D2608CE0204BD0FDC2032BD12DBF612A827F0BD0917BD0BD6BD12FBBD0917BDBA
S12310D912E8262A7D04C1260A7D04C02605F60E89270FC6B0F712ABC6F0F712ACBD13881B
S12310F92019C690F712ABC6D0F712AC200AC6A0F712ABC6E0F712ACBD133ABD13DC7E066C
S1231119B1BD12ADBD0917C10D2608CE0204BD0FDC202ABD12DB7D12A8270FC640F712AB15
S1231139C650F712ACBD130E2020BD0BD6BD12FBBD0917BD12E8260AC670F712ABBD13A61D
S12311592008C660F712ABBD1358BD13DC7E06B1BD12ADBD0917BD12DB7D12A82606CE0231
S123117904BD0FDC7C12ACBD130EBD13DC7E06B1BD12ADBD0917C10D2608CE0240BD0FDCA0
S12311992046C12326197312A9BD0917C127260FFE04C7A600B70E89A601B70E8A2029BDC8
S12311B90BD6BD12FBF612A92702201CBD0917BD12E826207D04C1260A7D04C02605F60E95
S12311D989270AC630F712ABBD13A6200FC610F712AB2005C620F712ABBD1358BD13DC7E4E
S12311F906B1BD12ADBD0917C10D26B3208CBD12ADBD0917C10D2608CE0204BD0FDC200E70
S1231219BD0BD6BD12FBBD0917BD12E8260AC610F712ABBD13A62003BD1358BD13DC7E060A
S1231239B1BD12ADBD0917C10D2608CE0204BD0FDC20367D04BE2731BD0BD6BD12FBFE04B8
S1231259BC0808FF04CEB60E8AF60E89B004CFF204CEC1FF26034D2B0DC10026034D2A06DD
S1231279CE0208BD0FDCB70E8ABD1358BD13DC7E06B1BD12AD7D04BE2706BD19C6BD19FE21
S11212997C0E867C04CDBD0E2FBD13DC7E06B10A
S12312AD7F04CD7F04C07F04C17F04C27F04C37F0E87F70E887F0E867F12A87F12A97F1203
S12312CDAA7F0E897F0E8A7F12AB7F12AC39C1412705C142270139F712A839C12C260BBD1D
S12312ED0917C15826047312AA397F12AA39C1FF260E7D04BE2703BD0FDC7F0E89730E8979
S123130D397D04BE2723F60E88B612A8270F81422705FA12AB2003FA12ACF70E88BD19C61E
S123132DBD19FE7C0E86BD0E2F7C04CD397D04BE2742F60E88B612A8272581422705FA124D
S123134DAB2003FA12ACF70E8820147D04BE27247F04C07F04C1F60E88FA12ABF70E88BD97
S123136D19C6BD19FEF60E8ABD19FE7C0E867C0E86BD0E2F7C04CD7C04CD397D04BE2745AF
S123138DF60E88B612A8271F81422705FA12AB2003FA12ACF70E88200E7D04BE2727F60E2D
S12313AD88FA12ABF70E88BD19C6BD19FEF60E89BD19FEF60E8ABD19FE7C0E867C0E867C81
S12313CD0E86BD0E2F7C04CD7C04CD7C04CD39B604BDF604BCBB04CDC900B704BDF704BC9D
S12313ED39BD12ADBD19157D04BE260FFE04BCFF04BA7304BEBD04A87E0688FE04BABC0427
S123140DBC2706CE0220BD0FDCB604B785802606BD0E2FBD155EB604B7852027037E14EDAF
S123142DCE1568FF15717F1575FE04B12009080808080808080808BC04B5260B7D157527CA
S123144D037E148B7E14EDE600C12027E1E608C1FF27DBFF1573FF0A06FE1571FF0A04C670
S123146D06F70A08CE0A04BD08E62205FE157320BDFE1573FF1571C6FFF7157520B0BD0E4F
S123148D4BC606FE1571A600BD1A75085A26F78620BD1A75BD1A5EFF1576E600C540270567
S12314AD8652BD1A75C5202705864DBD1A75C51027058643BD1A75C50827058658BD1A758E
S12314CDC5042705864EBD1A75E6002A06CE152ABD1A4EFE1576C6FFE700BD155E7E142D7A
S12314EDBD155EBD155ECE1541B604D1F604D2BD0F7DCE1535BD1A4EBD155EBD155ECE1537
S123150D4EBD1A4ECE055CBD1A5EBD155EB604B785402606BD19E67E04997E049C205245A5
S117152D444546494E454404544845524520574552453A208E
S1231546204552524F525304434F4D4D4F4E204C454E4754483D2004CE1565BD1A4E390DC1
S10E15660A045B5B5B5B5B5B00000046
S11A1578FE04CB8606E60036FF158FBD19FE32FE158F084A26EF39F8
S1231591BD12ADFE04CBFF15ED7D04BF2608CE0213BD0FDC2040BD0917C10D2605CE0216D7
S12315B120EFBD0BD6C1FF27E87D04BE261FFE15EDA6087D04C0260984BF7D04C127028AC0
S11F15D110A708B60E8AA707B60E89A706730E877C0E867C0E86BD0E2F7E06B1EE
S12315EFBD12ADBD0917C10D2608CE0216BD0FDC201CBD0BD6C1FF27F4B60E8AB704BDB6C4
S123160F0E89B704BC730E877C0E867C0E86BD0E2F7E06B1BD12ADBD0917C10D2608CE022D
S123162F16BD0FDC201DBD19C6BD0BD6BD12FB7C04CD7D04BE270FF60E8ABD19FE7C0E8664
S123164F7C0E87BD0E2FBD13DC7E06B1BD12ADBD0917C1272708CE0204BD0FDC203FBD196A
S123166FC6FE04C7E600C10D27ECF70E8A7D04BE2703BD19FEFE04C708FF04C77C04CDE667
S123168F00C1272706C10D26E4200CE601C127260608FF04C720D67C0E877C0E86BD0E2F40
S12316AFBD13DC7E06B1BD12ADBD0917C10D2608CE0216BD0FDC2029BD19C6BD0BD6BD1201
S12316CFFB7C04CD7C04CD7D04BE2718F60E89BD19FEF60E8ABD19FE7C0E867C0E86730E80
S12316EF87BD0E2FBD13DC7E06B1BD12ADBD1915BD0917C10D2608CE0216BD0FDC2023BDA7
S123170F0BD6C1FF27F1BD18687D05C027147D0E89260A7D0E8A26057F05C0200586FFB71A
S10B172F05C0BD0E2F7E06B1BA
S1231739BD12ADBD0E2F7F17377F17387D04BE26307D04BF260B731738CE0226BD0FDC20F5
S1231759DFFE04CB8620A708B60556A706B60557A707BD0917FE04C4A6008143260373172D
S123177937BD0797FE04B808FF04B8BD0E2FFE04C9A600812A260A7D173727E5BD17EE203E
S1231799E07F04BFFE04C9A60081202706BD09177304BFBD09178604B70A08FE04C4FF0AB9
S12317B904CE183CFF0A06CE0A04BD08E6260D7D04BF270ECE0227BD0FDC2006BD17EE7EA3
S12317D9177A7D04BE260B8617FE0556A70008FF05567E06B17D04BE26367D17382631FEFB
S12317F904C9FF04C7FE04C7A60008FF04C7FE0556BC04AD2610860DA70008FF0556CE028C
S123181928BD0FDC200AA70008FF0556810D26D539730E877304C37C0E867C0E86BD0E2F8A
S12318397E06B14D454E44BD12ADBD1915BD0917C1012709CE0216BD0FDC7E182A7E182AEE
S1231859BD12ADBD1915BD187CBD0E2F7E06B1BF04D5FE05BE8C05B6271DBE05BEB605C0A4
S123187936201BBF04D5FE05BE8C05BE2709BE05BE32B705C02007CE0254BD0FDC39BF05E3
S1231899BEBE04D539BD12ADBD19157D04BE2713F604D0270E863CF004D0BD155E5A26FA8E
S12318B97F04D07E06B1BD12ADBD0917C10D2608CE0216BD0FDC2015BD0BD6C1FF27F47D75
S12318D904BE270C7C0E867C0E86730E87BD0E2FB604BDF604BCBB0E8AF90E89B704BDF755
S12318F904BC7E06B15FFE0E89FF04CEBD19FEFE04CE092706FF04CE5F20F1397D04BF2756
S11319190E7D04BE2603BD0ACCCE0223BD0FDC39DD
S123194B192B000000000000B604B785402659FE194B8C192B27518653BD04A28631BD0421
S123196BA2F6194DCB03BD1A2FFB194EF7194EF61951BD1A2FFB194EF7194EF61952BD1A68
S123198B2FFB194EF7194ECE192BBC194B2708E60008BD1A2F20F3F6194E53BD1A2F860A9B
S12319ABBD04A2860DBD04A2CE192BFF194BFE194FFF19517F194D7F194E393637FE04BC4C
S12319CBBC194F2706FF194FBD1953333239533930333030303046430A0D00B604B78540F4
S12319EB2610BD1953CE19D9A6002706BD04A20820F639B604B785402629FF1929FE194B04
S1231A0B8C194B260837BD195333FE194BE70008FF194BFE194F08FF194F7C194DFB194E39
S1231A2BF7194E39178D09BD04A2178D077E04A244444444840F8B30813923028B0739BD5C
S1231A4B1A7508A600810426F639A6008D0EA60008200D8DF58DF386207E1A75444444447F
S1231A6B840F8B30813923028B0736BD05D632810A260E3637C6088600BD05D65A26F833D5
S11B1A8B3239397E1AA57E1AB17E1ABFBE015C7EE80FBE015C7EE800AD
S1231AA5FF1AA337BDE80933FE1AA339FF1AA33637BDE80C3332FE1AA339BDE82D39FF1AFE
S1111AC5A33637BDF0183332FE1AA3391AD3F4
S9030000FC
